{"contracts/Season.sol":{"Season":{"abi":[{"inputs":[],"stateMutability":"nonpayable","type":"constructor"},{"inputs":[{"internalType":"int32","name":"id","type":"int32"},{"internalType":"string","name":"name","type":"string"},{"internalType":"address","name":"","type":"address"}],"name":"initNewSeason","outputs":[],"stateMutability":"nonpayable","type":"function"}],"devdoc":{"kind":"dev","methods":{},"version":1},"evm":{"bytecode":{"linkReferences":{},"object":"608060405234801561001057600080fd5b506101ab806100206000396000f3fe608060405234801561001057600080fd5b506004361061002b5760003560e01c8063fd943bbf14610030575b600080fd5b61004361003e366004610073565b610045565b005b505050565b803573ffffffffffffffffffffffffffffffffffffffff8116811461006e57600080fd5b919050565b600080600060608486031215610087578283fd5b83358060030b8114610097578384fd5b9250602084013567ffffffffffffffff808211156100b3578384fd5b818601915086601f8301126100c6578384fd5b8135818111156100d8576100d8610146565b604051601f8201601f19908116603f0116810190838211818310171561010057610100610146565b81604052828152896020848701011115610118578687fd5b8260208601602083013791820160200195909552935061013d9150506040850161004a565b90509250925092565b7f4e487b7100000000000000000000000000000000000000000000000000000000600052604160045260246000fdfea26469706673582212206f14612db2cc1b39806c990ccc20595e3f5e85b5279417dbb27f3d494bc8302c64736f6c63430008010033","opcodes":"PUSH1 0x80 PUSH1 0x40 MSTORE CALLVALUE DUP1 ISZERO PUSH2 0x10 JUMPI PUSH1 0x0 DUP1 REVERT JUMPDEST POP PUSH2 0x1AB DUP1 PUSH2 0x20 PUSH1 0x0 CODECOPY PUSH1 0x0 RETURN INVALID PUSH1 0x80 PUSH1 0x40 MSTORE CALLVALUE DUP1 ISZERO PUSH2 0x10 JUMPI PUSH1 0x0 DUP1 REVERT JUMPDEST POP PUSH1 0x4 CALLDATASIZE LT PUSH2 0x2B JUMPI PUSH1 0x0 CALLDATALOAD PUSH1 0xE0 SHR DUP1 PUSH4 0xFD943BBF EQ PUSH2 0x30 JUMPI JUMPDEST PUSH1 0x0 DUP1 REVERT JUMPDEST PUSH2 0x43 PUSH2 0x3E CALLDATASIZE PUSH1 0x4 PUSH2 0x73 JUMP JUMPDEST PUSH2 0x45 JUMP JUMPDEST STOP JUMPDEST POP POP POP JUMP JUMPDEST DUP1 CALLDATALOAD PUSH20 0xFFFFFFFFFFFFFFFFFFFFFFFFFFFFFFFFFFFFFFFF DUP2 AND DUP2 EQ PUSH2 0x6E JUMPI PUSH1 0x0 DUP1 REVERT JUMPDEST SWAP2 SWAP1 POP JUMP JUMPDEST PUSH1 0x0 DUP1 PUSH1 0x0 PUSH1 0x60 DUP5 DUP7 SUB SLT ISZERO PUSH2 0x87 JUMPI DUP3 DUP4 REVERT JUMPDEST DUP4 CALLDATALOAD DUP1 PUSH1 0x3 SIGNEXTEND DUP2 EQ PUSH2 0x97 JUMPI DUP4 DUP5 REVERT JUMPDEST SWAP3 POP PUSH1 0x20 DUP5 ADD CALLDATALOAD PUSH8 0xFFFFFFFFFFFFFFFF DUP1 DUP3 GT ISZERO PUSH2 0xB3 JUMPI DUP4 DUP5 REVERT JUMPDEST DUP2 DUP7 ADD SWAP2 POP DUP7 PUSH1 0x1F DUP4 ADD SLT PUSH2 0xC6 JUMPI DUP4 DUP5 REVERT JUMPDEST DUP2 CALLDATALOAD DUP2 DUP2 GT ISZERO PUSH2 0xD8 JUMPI PUSH2 0xD8 PUSH2 0x146 JUMP JUMPDEST PUSH1 0x40 MLOAD PUSH1 0x1F DUP3 ADD PUSH1 0x1F NOT SWAP1 DUP2 AND PUSH1 0x3F ADD AND DUP2 ADD SWAP1 DUP4 DUP3 GT DUP2 DUP4 LT OR ISZERO PUSH2 0x100 JUMPI PUSH2 0x100 PUSH2 0x146 JUMP JUMPDEST DUP2 PUSH1 0x40 MSTORE DUP3 DUP2 MSTORE DUP10 PUSH1 0x20 DUP5 DUP8 ADD ADD GT ISZERO PUSH2 0x118 JUMPI DUP7 DUP8 REVERT JUMPDEST DUP3 PUSH1 0x20 DUP7 ADD PUSH1 0x20 DUP4 ADD CALLDATACOPY SWAP2 DUP3 ADD PUSH1 0x20 ADD SWAP6 SWAP1 SWAP6 MSTORE SWAP4 POP PUSH2 0x13D SWAP2 POP POP PUSH1 0x40 DUP6 ADD PUSH2 0x4A JUMP JUMPDEST SWAP1 POP SWAP3 POP SWAP3 POP SWAP3 JUMP JUMPDEST PUSH32 0x4E487B7100000000000000000000000000000000000000000000000000000000 PUSH1 0x0 MSTORE PUSH1 0x41 PUSH1 0x4 MSTORE PUSH1 0x24 PUSH1 0x0 REVERT INVALID LOG2 PUSH5 0x6970667358 0x22 SLT KECCAK256 PUSH16 0x14612DB2CC1B39806C990CCC20595E3F 0x5E DUP6 0xB5 0x27 SWAP5 OR 0xDB 0xB2 PUSH32 0x3D494BC8302C64736F6C63430008010033000000000000000000000000000000 "},"gasEstimates":{"creation":{"codeDepositCost":"85400","executionCost":"135","totalCost":"85535"},"external":{"initNewSeason(int32,string,address)":"infinite"}},"methodIdentifiers":{"initNewSeason(int32,string,address)":"fd943bbf"}},"storageLayout":{"storage":[],"types":null},"userdoc":{"kind":"user","methods":{},"version":1}}}}